{
  "contractName": "Poll",
  "abi": [
    {
      "inputs": [],
      "stateMutability": "nonpayable",
      "type": "constructor"
    },
    {
      "inputs": [],
      "name": "admin",
      "outputs": [
        {
          "internalType": "address",
          "name": "",
          "type": "address"
        }
      ],
      "stateMutability": "view",
      "type": "function",
      "constant": true
    },
    {
      "inputs": [
        {
          "internalType": "uint256",
          "name": "",
          "type": "uint256"
        }
      ],
      "name": "pollIds",
      "outputs": [
        {
          "internalType": "uint256",
          "name": "",
          "type": "uint256"
        }
      ],
      "stateMutability": "view",
      "type": "function",
      "constant": true
    },
    {
      "inputs": [
        {
          "internalType": "uint256",
          "name": "",
          "type": "uint256"
        }
      ],
      "name": "polls",
      "outputs": [
        {
          "internalType": "string",
          "name": "name",
          "type": "string"
        }
      ],
      "stateMutability": "view",
      "type": "function",
      "constant": true
    },
    {
      "inputs": [
        {
          "internalType": "string",
          "name": "name",
          "type": "string"
        },
        {
          "internalType": "string[]",
          "name": "options",
          "type": "string[]"
        }
      ],
      "name": "createPoll",
      "outputs": [],
      "stateMutability": "nonpayable",
      "type": "function"
    },
    {
      "inputs": [
        {
          "internalType": "uint256",
          "name": "pollId",
          "type": "uint256"
        },
        {
          "internalType": "address",
          "name": "voter",
          "type": "address"
        }
      ],
      "name": "addVoter",
      "outputs": [],
      "stateMutability": "nonpayable",
      "type": "function"
    },
    {
      "inputs": [
        {
          "internalType": "uint256",
          "name": "pollId",
          "type": "uint256"
        },
        {
          "internalType": "uint256",
          "name": "option",
          "type": "uint256"
        }
      ],
      "name": "vote",
      "outputs": [],
      "stateMutability": "nonpayable",
      "type": "function"
    },
    {
      "inputs": [
        {
          "internalType": "uint256",
          "name": "pollId",
          "type": "uint256"
        }
      ],
      "name": "getResults",
      "outputs": [
        {
          "internalType": "string",
          "name": "name",
          "type": "string"
        },
        {
          "internalType": "uint256[]",
          "name": "votes",
          "type": "uint256[]"
        },
        {
          "internalType": "string[]",
          "name": "options",
          "type": "string[]"
        }
      ],
      "stateMutability": "view",
      "type": "function",
      "constant": true
    }
  ],
  "bytecode": "0x60806040523480156200001157600080fd5b5033600260006101000a81548173ffffffffffffffffffffffffffffffffffffffff021916908373ffffffffffffffffffffffffffffffffffffffff1602179055506000600367ffffffffffffffff8111156200007357620000726200065a565b5b604051908082528060200260200182016040528015620000a857816020015b6060815260200190600190039081620000925790505b5090506040518060400160405280600681526020017f4f70636a6131000000000000000000000000000000000000000000000000000081525081600081518110620000f857620000f762000689565b5b60200260200101819052506040518060400160405280600681526020017f4f70636a613200000000000000000000000000000000000000000000000000008152508160018151811062000150576200014f62000689565b5b60200260200101819052506040518060400160405280600681526020017f4f70636a6133000000000000000000000000000000000000000000000000000081525081600281518110620001a857620001a762000689565b5b6020026020010181905250620001fa6040518060400160405280600981526020017f416e6b6965746120310000000000000000000000000000000000000000000000815250826200024860201b60201c565b620002416040518060400160405280600981526020017f416e6b6965746120320000000000000000000000000000000000000000000000815250826200024860201b60201c565b5062000ad7565b600260009054906101000a900473ffffffffffffffffffffffffffffffffffffffff1673ffffffffffffffffffffffffffffffffffffffff163373ffffffffffffffffffffffffffffffffffffffff1614620002db576040517f08c379a0000000000000000000000000000000000000000000000000000000008152600401620002d29062000719565b60405180910390fd5b6001600090806001815401808255809150506001900390600052602060002001600090919091909150556000600180805490506200031a919062000774565b90506040518060800160405280848152602001838152602001600067ffffffffffffffff8111156200035157620003506200065a565b5b604051908082528060200260200182016040528015620003805781602001602082028036833780820191505090505b508152602001835167ffffffffffffffff811115620003a457620003a36200065a565b5b604051908082528060200260200182016040528015620003d35781602001602082028036833780820191505090505b508152506000808381526020019081526020016000206000820151816000019081620004009190620009f0565b5060208201518160010190805190602001906200041f9291906200048c565b5060408201518160020190805190602001906200043e929190620004ec565b5060608201518160030190805190602001906200045d9291906200057b565b50905050806001828154811062000479576200047862000689565b5b9060005260206000200181905550505050565b828054828255906000526020600020908101928215620004d9579160200282015b82811115620004d8578251829081620004c79190620009f0565b5091602001919060010190620004ad565b5b509050620004e89190620005cd565b5090565b82805482825590600052602060002090810192821562000568579160200282015b82811115620005675782518260006101000a81548173ffffffffffffffffffffffffffffffffffffffff021916908373ffffffffffffffffffffffffffffffffffffffff160217905550916020019190600101906200050d565b5b509050620005779190620005f5565b5090565b828054828255906000526020600020908101928215620005ba579160200282015b82811115620005b95782518255916020019190600101906200059c565b5b509050620005c99190620005f5565b5090565b5b80821115620005f15760008181620005e7919062000614565b50600101620005ce565b5090565b5b8082111562000610576000816000905550600101620005f6565b5090565b5080546200062290620007e9565b6000825580601f1062000636575062000657565b601f016020900490600052602060002090810190620006569190620005f5565b5b50565b7f4e487b7100000000000000000000000000000000000000000000000000000000600052604160045260246000fd5b7f4e487b7100000000000000000000000000000000000000000000000000000000600052603260045260246000fd5b600082825260208201905092915050565b7f4f6e6c79207468652061646d696e2063616e2063726561746520706f6c6c7300600082015250565b600062000701601f83620006b8565b91506200070e82620006c9565b602082019050919050565b600060208201905081810360008301526200073481620006f2565b9050919050565b6000819050919050565b7f4e487b7100000000000000000000000000000000000000000000000000000000600052601160045260246000fd5b600062000781826200073b565b91506200078e836200073b565b9250828203905081811115620007a957620007a862000745565b5b92915050565b600081519050919050565b7f4e487b7100000000000000000000000000000000000000000000000000000000600052602260045260246000fd5b600060028204905060018216806200080257607f821691505b602082108103620008185762000817620007ba565b5b50919050565b60008190508160005260206000209050919050565b60006020601f8301049050919050565b600082821b905092915050565b600060088302620008827fffffffffffffffffffffffffffffffffffffffffffffffffffffffffffffffff8262000843565b6200088e868362000843565b95508019841693508086168417925050509392505050565b6000819050919050565b6000620008d1620008cb620008c5846200073b565b620008a6565b6200073b565b9050919050565b6000819050919050565b620008ed83620008b0565b62000905620008fc82620008d8565b84845462000850565b825550505050565b600090565b6200091c6200090d565b62000929818484620008e2565b505050565b5b8181101562000951576200094560008262000912565b6001810190506200092f565b5050565b601f821115620009a0576200096a816200081e565b620009758462000833565b8101602085101562000985578190505b6200099d620009948562000833565b8301826200092e565b50505b505050565b600082821c905092915050565b6000620009c560001984600802620009a5565b1980831691505092915050565b6000620009e08383620009b2565b9150826002028217905092915050565b620009fb82620007af565b67ffffffffffffffff81111562000a175762000a166200065a565b5b62000a238254620007e9565b62000a3082828562000955565b600060209050601f83116001811462000a68576000841562000a53578287015190505b62000a5f8582620009d2565b86555062000acf565b601f19841662000a78866200081e565b60005b8281101562000aa25784890151825560018201915060208501945060208101905062000a7b565b8683101562000ac2578489015162000abe601f891682620009b2565b8355505b6001600288020188555050505b505050505050565b611a8d8062000ae76000396000f3fe608060405234801561001057600080fd5b506004361061007d5760003560e01c806381a60c0d1161005b57806381a60c0d146100ea578063ac2f00741461011c578063b384abef1461014c578063f851a440146101685761007d565b8063093913211461008257806373a5c08d1461009e5780637e3d71c3146100ce575b600080fd5b61009c60048036038101906100979190610d95565b610186565b005b6100b860048036038101906100b39190610dd5565b6103e6565b6040516100c59190610e11565b60405180910390f35b6100e860048036038101906100e39190611058565b61040a565b005b61010460048036038101906100ff9190610dd5565b610636565b60405161011393929190611319565b60405180910390f35b61013660048036038101906101319190610dd5565b610813565b6040516101439190611365565b60405180910390f35b61016660048036038101906101619190611387565b6108b9565b005b610170610b16565b60405161017d91906113d6565b60405180910390f35b600260009054906101000a900473ffffffffffffffffffffffffffffffffffffffff1673ffffffffffffffffffffffffffffffffffffffff163373ffffffffffffffffffffffffffffffffffffffff1614610216576040517f08c379a000000000000000000000000000000000000000000000000000000000815260040161020d90611463565b60405180910390fd5b60008060008481526020019081526020016000209050806003018054905081600201805490501461027c576040517f08c379a0000000000000000000000000000000000000000000000000000000008152600401610273906114cf565b60405180910390fd5b60005b816002018054905081101561034f578273ffffffffffffffffffffffffffffffffffffffff168260020182815481106102bb576102ba6114ef565b5b9060005260206000200160009054906101000a900473ffffffffffffffffffffffffffffffffffffffff1673ffffffffffffffffffffffffffffffffffffffff160361033c576040517f08c379a00000000000000000000000000000000000000000000000000000000081526004016103339061156a565b60405180910390fd5b8080610347906115b9565b91505061027f565b5080600201829080600181540180825580915050600190039060005260206000200160009091909190916101000a81548173ffffffffffffffffffffffffffffffffffffffff021916908373ffffffffffffffffffffffffffffffffffffffff1602179055508060030160009080600181540180825580915050600190039060005260206000200160009091909190915055505050565b600181815481106103f657600080fd5b906000526020600020016000915090505481565b600260009054906101000a900473ffffffffffffffffffffffffffffffffffffffff1673ffffffffffffffffffffffffffffffffffffffff163373ffffffffffffffffffffffffffffffffffffffff161461049a576040517f08c379a00000000000000000000000000000000000000000000000000000000081526004016104919061164d565b60405180910390fd5b6001600090806001815401808255809150506001900390600052602060002001600090919091909150556000600180805490506104d7919061166d565b90506040518060800160405280848152602001838152602001600067ffffffffffffffff81111561050b5761050a610e47565b5b6040519080825280602002602001820160405280156105395781602001602082028036833780820191505090505b508152602001835167ffffffffffffffff81111561055a57610559610e47565b5b6040519080825280602002602001820160405280156105885781602001602082028036833780820191505090505b5081525060008083815260200190815260200160002060008201518160000190816105b391906118ad565b5060208201518160010190805190602001906105d0929190610b3c565b5060408201518160020190805190602001906105ed929190610b95565b50606082015181600301908051906020019061060a929190610c1f565b509050508060018281548110610623576106226114ef565b5b9060005260206000200181905550505050565b606080606060008060008681526020019081526020016000209050806000018054610660906116d0565b80601f016020809104026020016040519081016040528092919081815260200182805461068c906116d0565b80156106d95780601f106106ae576101008083540402835291602001916106d9565b820191906000526020600020905b8154815290600101906020018083116106bc57829003601f168201915b505050505093508060030180548060200260200160405190810160405280929190818152602001828054801561072e57602002820191906000526020600020905b81548152602001906001019080831161071a575b5050505050925080600101805480602002602001604051908101604052809291908181526020016000905b82821015610805578382906000526020600020018054610778906116d0565b80601f01602080910402602001604051908101604052809291908181526020018280546107a4906116d0565b80156107f15780601f106107c6576101008083540402835291602001916107f1565b820191906000526020600020905b8154815290600101906020018083116107d457829003601f168201915b505050505081526020019060010190610759565b505050509150509193909250565b6000602052806000526040600020600091509050806000018054610836906116d0565b80601f0160208091040260200160405190810160405280929190818152602001828054610862906116d0565b80156108af5780601f10610884576101008083540402835291602001916108af565b820191906000526020600020905b81548152906001019060200180831161089257829003601f168201915b5050505050905081565b6000806000848152602001908152602001600020905060005b8160020180549050811015610ace573373ffffffffffffffffffffffffffffffffffffffff1682600201828154811061090e5761090d6114ef565b5b9060005260206000200160009054906101000a900473ffffffffffffffffffffffffffffffffffffffff1673ffffffffffffffffffffffffffffffffffffffff1603610abb5781600301805490508260020180549050146109a4576040517f08c379a000000000000000000000000000000000000000000000000000000000815260040161099b906114cf565b60405180910390fd5b816001018054905083106109ed576040517f08c379a00000000000000000000000000000000000000000000000000000000081526004016109e4906119cb565b60405180910390fd5b600033905060005b8360020180549050811015610ab8578173ffffffffffffffffffffffffffffffffffffffff16846002018281548110610a3157610a306114ef565b5b9060005260206000200160009054906101000a900473ffffffffffffffffffffffffffffffffffffffff1673ffffffffffffffffffffffffffffffffffffffff1603610aa55784846003018281548110610a8e57610a8d6114ef565b5b906000526020600020018190555050505050610b12565b8080610ab0906115b9565b9150506109f5565b50505b8080610ac6906115b9565b9150506108d2565b506000610b10576040517f08c379a0000000000000000000000000000000000000000000000000000000008152600401610b0790611a37565b60405180910390fd5b505b5050565b600260009054906101000a900473ffffffffffffffffffffffffffffffffffffffff1681565b828054828255906000526020600020908101928215610b84579160200282015b82811115610b83578251829081610b7391906118ad565b5091602001919060010190610b5c565b5b509050610b919190610c6c565b5090565b828054828255906000526020600020908101928215610c0e579160200282015b82811115610c0d5782518260006101000a81548173ffffffffffffffffffffffffffffffffffffffff021916908373ffffffffffffffffffffffffffffffffffffffff16021790555091602001919060010190610bb5565b5b509050610c1b9190610c90565b5090565b828054828255906000526020600020908101928215610c5b579160200282015b82811115610c5a578251825591602001919060010190610c3f565b5b509050610c689190610c90565b5090565b5b80821115610c8c5760008181610c839190610cad565b50600101610c6d565b5090565b5b80821115610ca9576000816000905550600101610c91565b5090565b508054610cb9906116d0565b6000825580601f10610ccb5750610cea565b601f016020900490600052602060002090810190610ce99190610c90565b5b50565b6000604051905090565b600080fd5b600080fd5b6000819050919050565b610d1481610d01565b8114610d1f57600080fd5b50565b600081359050610d3181610d0b565b92915050565b600073ffffffffffffffffffffffffffffffffffffffff82169050919050565b6000610d6282610d37565b9050919050565b610d7281610d57565b8114610d7d57600080fd5b50565b600081359050610d8f81610d69565b92915050565b60008060408385031215610dac57610dab610cf7565b5b6000610dba85828601610d22565b9250506020610dcb85828601610d80565b9150509250929050565b600060208284031215610deb57610dea610cf7565b5b6000610df984828501610d22565b91505092915050565b610e0b81610d01565b82525050565b6000602082019050610e266000830184610e02565b92915050565b600080fd5b600080fd5b6000601f19601f8301169050919050565b7f4e487b7100000000000000000000000000000000000000000000000000000000600052604160045260246000fd5b610e7f82610e36565b810181811067ffffffffffffffff82111715610e9e57610e9d610e47565b5b80604052505050565b6000610eb1610ced565b9050610ebd8282610e76565b919050565b600067ffffffffffffffff821115610edd57610edc610e47565b5b610ee682610e36565b9050602081019050919050565b82818337600083830152505050565b6000610f15610f1084610ec2565b610ea7565b905082815260208101848484011115610f3157610f30610e31565b5b610f3c848285610ef3565b509392505050565b600082601f830112610f5957610f58610e2c565b5b8135610f69848260208601610f02565b91505092915050565b600067ffffffffffffffff821115610f8d57610f8c610e47565b5b602082029050602081019050919050565b600080fd5b6000610fb6610fb184610f72565b610ea7565b90508083825260208201905060208402830185811115610fd957610fd8610f9e565b5b835b8181101561102057803567ffffffffffffffff811115610ffe57610ffd610e2c565b5b80860161100b8982610f44565b85526020850194505050602081019050610fdb565b5050509392505050565b600082601f83011261103f5761103e610e2c565b5b813561104f848260208601610fa3565b91505092915050565b6000806040838503121561106f5761106e610cf7565b5b600083013567ffffffffffffffff81111561108d5761108c610cfc565b5b61109985828601610f44565b925050602083013567ffffffffffffffff8111156110ba576110b9610cfc565b5b6110c68582860161102a565b9150509250929050565b600081519050919050565b600082825260208201905092915050565b60005b8381101561110a5780820151818401526020810190506110ef565b60008484015250505050565b6000611121826110d0565b61112b81856110db565b935061113b8185602086016110ec565b61114481610e36565b840191505092915050565b600081519050919050565b600082825260208201905092915050565b6000819050602082019050919050565b61118481610d01565b82525050565b6000611196838361117b565b60208301905092915050565b6000602082019050919050565b60006111ba8261114f565b6111c4818561115a565b93506111cf8361116b565b8060005b838110156112005781516111e7888261118a565b97506111f2836111a2565b9250506001810190506111d3565b5085935050505092915050565b600081519050919050565b600082825260208201905092915050565b6000819050602082019050919050565b600082825260208201905092915050565b6000611255826110d0565b61125f8185611239565b935061126f8185602086016110ec565b61127881610e36565b840191505092915050565b600061128f838361124a565b905092915050565b6000602082019050919050565b60006112af8261120d565b6112b98185611218565b9350836020820285016112cb85611229565b8060005b8581101561130757848403895281516112e88582611283565b94506112f383611297565b925060208a019950506001810190506112cf565b50829750879550505050505092915050565b600060608201905081810360008301526113338186611116565b9050818103602083015261134781856111af565b9050818103604083015261135b81846112a4565b9050949350505050565b6000602082019050818103600083015261137f8184611116565b905092915050565b6000806040838503121561139e5761139d610cf7565b5b60006113ac85828601610d22565b92505060206113bd85828601610d22565b9150509250929050565b6113d081610d57565b82525050565b60006020820190506113eb60008301846113c7565b92915050565b7f4f6e6c79207468652061646d696e2063616e2061646420766f7465727320746f60008201527f206120706f6c6c00000000000000000000000000000000000000000000000000602082015250565b600061144d6027836110db565b9150611458826113f1565b604082019050919050565b6000602082019050818103600083015261147c81611440565b9050919050565b7f496e76616c696420706f6c6c2064617461000000000000000000000000000000600082015250565b60006114b96011836110db565b91506114c482611483565b602082019050919050565b600060208201905081810360008301526114e8816114ac565b9050919050565b7f4e487b7100000000000000000000000000000000000000000000000000000000600052603260045260246000fd5b7f566f7465722068617320616c7265616479206265656e20616464656400000000600082015250565b6000611554601c836110db565b915061155f8261151e565b602082019050919050565b6000602082019050818103600083015261158381611547565b9050919050565b7f4e487b7100000000000000000000000000000000000000000000000000000000600052601160045260246000fd5b60006115c482610d01565b91507fffffffffffffffffffffffffffffffffffffffffffffffffffffffffffffffff82036115f6576115f561158a565b5b600182019050919050565b7f4f6e6c79207468652061646d696e2063616e2063726561746520706f6c6c7300600082015250565b6000611637601f836110db565b915061164282611601565b602082019050919050565b600060208201905081810360008301526116668161162a565b9050919050565b600061167882610d01565b915061168383610d01565b925082820390508181111561169b5761169a61158a565b5b92915050565b7f4e487b7100000000000000000000000000000000000000000000000000000000600052602260045260246000fd5b600060028204905060018216806116e857607f821691505b6020821081036116fb576116fa6116a1565b5b50919050565b60008190508160005260206000209050919050565b60006020601f8301049050919050565b600082821b905092915050565b6000600883026117637fffffffffffffffffffffffffffffffffffffffffffffffffffffffffffffffff82611726565b61176d8683611726565b95508019841693508086168417925050509392505050565b6000819050919050565b60006117aa6117a56117a084610d01565b611785565b610d01565b9050919050565b6000819050919050565b6117c48361178f565b6117d86117d0826117b1565b848454611733565b825550505050565b600090565b6117ed6117e0565b6117f88184846117bb565b505050565b5b8181101561181c576118116000826117e5565b6001810190506117fe565b5050565b601f8211156118615761183281611701565b61183b84611716565b8101602085101561184a578190505b61185e61185685611716565b8301826117fd565b50505b505050565b600082821c905092915050565b600061188460001984600802611866565b1980831691505092915050565b600061189d8383611873565b9150826002028217905092915050565b6118b6826110d0565b67ffffffffffffffff8111156118cf576118ce610e47565b5b6118d982546116d0565b6118e4828285611820565b600060209050601f8311600181146119175760008415611905578287015190505b61190f8582611891565b865550611977565b601f19841661192586611701565b60005b8281101561194d57848901518255600182019150602085019450602081019050611928565b8683101561196a5784890151611966601f891682611873565b8355505b6001600288020188555050505b505050505050565b7f496e76616c6964206f7074696f6e000000000000000000000000000000000000600082015250565b60006119b5600e836110db565b91506119c08261197f565b602082019050919050565b600060208201905081810360008301526119e4816119a8565b9050919050565b7f53656e6465722061646472657373206973206e6f7420616c6c6f776564000000600082015250565b6000611a21601d836110db565b9150611a2c826119eb565b602082019050919050565b60006020820190508181036000830152611a5081611a14565b905091905056fea264697066735822122053c1f75ae1555d14ba3c08c73acc354aa36e0f59a0777de4bfed0da91061654264736f6c63430008110033",
  "immutableReferences": {},
  "source": "pragma solidity ^0.8.0;\r\n\r\ncontract Poll {\r\n    // Poll struct\r\n    struct PollStruct {\r\n        string name;\r\n        string[] options;\r\n        address[] voters;\r\n        uint[] votes;\r\n    }\r\n\r\n    // Mapping from poll ID to poll struct\r\n    mapping(uint => PollStruct) public polls;\r\n    // List of all poll IDs\r\n    uint[] public pollIds;\r\n    // Admin address\r\n    address public admin;\r\n\r\n    // Constructor\r\n    constructor() public {\r\n        // Set the contract deployer as the admin\r\n        admin = msg.sender;\r\n        string[] memory choices = new string[](3);\r\n        choices[0] = \"Opcja1\";\r\n        choices[1] = \"Opcja2\";\r\n        choices[2] = \"Opcja3\";\r\n        createPoll(\"Ankieta 1\", choices);\r\n        createPoll(\"Ankieta 2\", choices);\r\n    }\r\n\r\n    // Function to create a new poll\r\n    function createPoll(string memory name, string[] memory options) public {\r\n        require(msg.sender == admin, \"Only the admin can create polls\");\r\n        pollIds.push(0);\r\n        uint pollId = pollIds.length - 1;\r\n        polls[pollId] = PollStruct(name, options, new address[](0), new uint[](options.length));\r\n        pollIds[pollId] = pollId;\r\n    }\r\n\r\n    // Function to add a voter to a poll\r\n    function addVoter(uint pollId, address voter) public {\r\n        require(msg.sender == admin, \"Only the admin can add voters to a poll\");\r\n        PollStruct storage poll = polls[pollId];\r\n        require(poll.voters.length == poll.votes.length, \"Invalid poll data\");\r\n        for (uint i = 0; i < poll.voters.length; i++) {\r\n            require(poll.voters[i] != voter, \"Voter has already been added\");\r\n        }\r\n        poll.voters.push(voter);\r\n        poll.votes.push(0);\r\n    }\r\n\r\n    // Function to cast a vote in a poll\r\n    function vote(uint pollId, uint option) public {\r\n        PollStruct storage poll = polls[pollId];\r\n\r\n        for (uint i = 0; i < poll.voters.length; i++) {\r\n            if (poll.voters[i] == msg.sender) {\r\n                require(poll.voters.length == poll.votes.length, \"Invalid poll data\");\r\n                require(option < poll.options.length, \"Invalid option\");\r\n                address voter = msg.sender;\r\n                for (uint j = 0; j < poll.voters.length; j++) {\r\n                     if (poll.voters[j] == voter) {\r\n                            poll.votes[j] = option;\r\n                            return;\r\n                        }\r\n                    }\r\n         }\r\n        }\r\n\r\n        // Sender's address is not in the array, throw an error\r\n        require(false, \"Sender address is not allowed\");\r\n    }\r\n\r\n    // Function to get the results of a poll\r\n    function getResults(uint pollId) public view returns (string memory name, uint[] memory votes, string[] memory options) {\r\n        PollStruct storage poll = polls[pollId];\r\n        name = poll.name;\r\n        votes = poll.votes;\r\n        options = poll.options;\r\n    }\r\n}",
  "sourcePath": "C:\\Users\\creat\\Desktop\\BC\\ProjektBC\\contracts\\Poll.sol",
  "compiler": {
    "name": "solc",
    "version": "0.8.17+commit.8df45f5f.Emscripten.clang"
  },
  "schemaVersion": "3.4.11",
  "updatedAt": "2023-01-07T12:45:55.978Z",
  "networkType": "ethereum",
  "devdoc": {
    "kind": "dev",
    "methods": {},
    "version": 1
  },
  "userdoc": {
    "kind": "user",
    "methods": {},
    "version": 1
  }
}