{
  "contractName": "Poll",
  "abi": [
    {
      "inputs": [],
      "stateMutability": "nonpayable",
      "type": "constructor"
    },
    {
      "inputs": [],
      "name": "admin",
      "outputs": [
        {
          "internalType": "address",
          "name": "",
          "type": "address"
        }
      ],
      "stateMutability": "view",
      "type": "function",
      "constant": true
    },
    {
      "inputs": [
        {
          "internalType": "uint256",
          "name": "",
          "type": "uint256"
        }
      ],
      "name": "pollIds",
      "outputs": [
        {
          "internalType": "uint256",
          "name": "",
          "type": "uint256"
        }
      ],
      "stateMutability": "view",
      "type": "function",
      "constant": true
    },
    {
      "inputs": [
        {
          "internalType": "uint256",
          "name": "",
          "type": "uint256"
        }
      ],
      "name": "polls",
      "outputs": [
        {
          "internalType": "string",
          "name": "name",
          "type": "string"
        }
      ],
      "stateMutability": "view",
      "type": "function",
      "constant": true
    },
    {
      "inputs": [
        {
          "internalType": "string",
          "name": "name",
          "type": "string"
        },
        {
          "internalType": "string[]",
          "name": "options",
          "type": "string[]"
        }
      ],
      "name": "createPoll",
      "outputs": [],
      "stateMutability": "nonpayable",
      "type": "function"
    },
    {
      "inputs": [
        {
          "internalType": "uint256",
          "name": "pollId",
          "type": "uint256"
        },
        {
          "internalType": "address",
          "name": "voter",
          "type": "address"
        }
      ],
      "name": "addVoter",
      "outputs": [],
      "stateMutability": "nonpayable",
      "type": "function"
    },
    {
      "inputs": [
        {
          "internalType": "uint256",
          "name": "pollId",
          "type": "uint256"
        },
        {
          "internalType": "uint256",
          "name": "option",
          "type": "uint256"
        }
      ],
      "name": "vote",
      "outputs": [],
      "stateMutability": "nonpayable",
      "type": "function"
    },
    {
      "inputs": [
        {
          "internalType": "uint256",
          "name": "pollId",
          "type": "uint256"
        }
      ],
      "name": "getResults",
      "outputs": [
        {
          "internalType": "string",
          "name": "name",
          "type": "string"
        },
        {
          "internalType": "uint256[]",
          "name": "votes",
          "type": "uint256[]"
        }
      ],
      "stateMutability": "view",
      "type": "function",
      "constant": true
    }
  ],
  "bytecode": "0x608060405234801561001057600080fd5b5033600260006101000a81548173ffffffffffffffffffffffffffffffffffffffff021916908373ffffffffffffffffffffffffffffffffffffffff16021790555061178b806100616000396000f3fe608060405234801561001057600080fd5b506004361061007d5760003560e01c806381a60c0d1161005b57806381a60c0d146100ea578063ac2f00741461011b578063b384abef1461014b578063f851a440146101675761007d565b8063093913211461008257806373a5c08d1461009e5780637e3d71c3146100ce575b600080fd5b61009c60048036038101906100979190610c20565b610185565b005b6100b860048036038101906100b39190610c60565b6103e5565b6040516100c59190610c9c565b60405180910390f35b6100e860048036038101906100e39190610ee3565b610409565b005b61010460048036038101906100ff9190610c60565b610635565b604051610112929190611098565b60405180910390f35b61013560048036038101906101309190610c60565b610738565b60405161014291906110cf565b60405180910390f35b610165600480360381019061016091906110f1565b6107de565b005b61016f6109a1565b60405161017c9190611140565b60405180910390f35b600260009054906101000a900473ffffffffffffffffffffffffffffffffffffffff1673ffffffffffffffffffffffffffffffffffffffff163373ffffffffffffffffffffffffffffffffffffffff1614610215576040517f08c379a000000000000000000000000000000000000000000000000000000000815260040161020c906111cd565b60405180910390fd5b60008060008481526020019081526020016000209050806003018054905081600201805490501461027b576040517f08c379a000000000000000000000000000000000000000000000000000000000815260040161027290611239565b60405180910390fd5b60005b816002018054905081101561034e578273ffffffffffffffffffffffffffffffffffffffff168260020182815481106102ba576102b9611259565b5b9060005260206000200160009054906101000a900473ffffffffffffffffffffffffffffffffffffffff1673ffffffffffffffffffffffffffffffffffffffff160361033b576040517f08c379a0000000000000000000000000000000000000000000000000000000008152600401610332906112d4565b60405180910390fd5b808061034690611323565b91505061027e565b5080600201829080600181540180825580915050600190039060005260206000200160009091909190916101000a81548173ffffffffffffffffffffffffffffffffffffffff021916908373ffffffffffffffffffffffffffffffffffffffff1602179055508060030160009080600181540180825580915050600190039060005260206000200160009091909190915055505050565b600181815481106103f557600080fd5b906000526020600020016000915090505481565b600260009054906101000a900473ffffffffffffffffffffffffffffffffffffffff1673ffffffffffffffffffffffffffffffffffffffff163373ffffffffffffffffffffffffffffffffffffffff1614610499576040517f08c379a0000000000000000000000000000000000000000000000000000000008152600401610490906113b7565b60405180910390fd5b6001600090806001815401808255809150506001900390600052602060002001600090919091909150556000600180805490506104d691906113d7565b90506040518060800160405280848152602001838152602001600067ffffffffffffffff81111561050a57610509610cd2565b5b6040519080825280602002602001820160405280156105385781602001602082028036833780820191505090505b508152602001835167ffffffffffffffff81111561055957610558610cd2565b5b6040519080825280602002602001820160405280156105875781602001602082028036833780820191505090505b5081525060008083815260200190815260200160002060008201518160000190816105b29190611617565b5060208201518160010190805190602001906105cf9291906109c7565b5060408201518160020190805190602001906105ec929190610a20565b506060820151816003019080519060200190610609929190610aaa565b50905050806001828154811061062257610621611259565b5b9060005260206000200181905550505050565b6060806000806000858152602001908152602001600020905080600001805461065d9061143a565b80601f01602080910402602001604051908101604052809291908181526020018280546106899061143a565b80156106d65780601f106106ab576101008083540402835291602001916106d6565b820191906000526020600020905b8154815290600101906020018083116106b957829003601f168201915b505050505092508060030180548060200260200160405190810160405280929190818152602001828054801561072b57602002820191906000526020600020905b815481526020019060010190808311610717575b5050505050915050915091565b600060205280600052604060002060009150905080600001805461075b9061143a565b80601f01602080910402602001604051908101604052809291908181526020018280546107879061143a565b80156107d45780601f106107a9576101008083540402835291602001916107d4565b820191906000526020600020905b8154815290600101906020018083116107b757829003601f168201915b5050505050905081565b600080600084815260200190815260200160002090508060030180549050816002018054905014610844576040517f08c379a000000000000000000000000000000000000000000000000000000000815260040161083b90611239565b60405180910390fd5b8060010180549050821061088d576040517f08c379a000000000000000000000000000000000000000000000000000000000815260040161088490611735565b60405180910390fd5b600033905060005b8260020180549050811015610957578173ffffffffffffffffffffffffffffffffffffffff168360020182815481106108d1576108d0611259565b5b9060005260206000200160009054906101000a900473ffffffffffffffffffffffffffffffffffffffff1673ffffffffffffffffffffffffffffffffffffffff1603610944578383600301828154811061092e5761092d611259565b5b906000526020600020018190555050505061099d565b808061094f90611323565b915050610895565b506109628482610185565b82826003016001846003018054905061097b91906113d7565b8154811061098c5761098b611259565b5b906000526020600020018190555050505b5050565b600260009054906101000a900473ffffffffffffffffffffffffffffffffffffffff1681565b828054828255906000526020600020908101928215610a0f579160200282015b82811115610a0e5782518290816109fe9190611617565b50916020019190600101906109e7565b5b509050610a1c9190610af7565b5090565b828054828255906000526020600020908101928215610a99579160200282015b82811115610a985782518260006101000a81548173ffffffffffffffffffffffffffffffffffffffff021916908373ffffffffffffffffffffffffffffffffffffffff16021790555091602001919060010190610a40565b5b509050610aa69190610b1b565b5090565b828054828255906000526020600020908101928215610ae6579160200282015b82811115610ae5578251825591602001919060010190610aca565b5b509050610af39190610b1b565b5090565b5b80821115610b175760008181610b0e9190610b38565b50600101610af8565b5090565b5b80821115610b34576000816000905550600101610b1c565b5090565b508054610b449061143a565b6000825580601f10610b565750610b75565b601f016020900490600052602060002090810190610b749190610b1b565b5b50565b6000604051905090565b600080fd5b600080fd5b6000819050919050565b610b9f81610b8c565b8114610baa57600080fd5b50565b600081359050610bbc81610b96565b92915050565b600073ffffffffffffffffffffffffffffffffffffffff82169050919050565b6000610bed82610bc2565b9050919050565b610bfd81610be2565b8114610c0857600080fd5b50565b600081359050610c1a81610bf4565b92915050565b60008060408385031215610c3757610c36610b82565b5b6000610c4585828601610bad565b9250506020610c5685828601610c0b565b9150509250929050565b600060208284031215610c7657610c75610b82565b5b6000610c8484828501610bad565b91505092915050565b610c9681610b8c565b82525050565b6000602082019050610cb16000830184610c8d565b92915050565b600080fd5b600080fd5b6000601f19601f8301169050919050565b7f4e487b7100000000000000000000000000000000000000000000000000000000600052604160045260246000fd5b610d0a82610cc1565b810181811067ffffffffffffffff82111715610d2957610d28610cd2565b5b80604052505050565b6000610d3c610b78565b9050610d488282610d01565b919050565b600067ffffffffffffffff821115610d6857610d67610cd2565b5b610d7182610cc1565b9050602081019050919050565b82818337600083830152505050565b6000610da0610d9b84610d4d565b610d32565b905082815260208101848484011115610dbc57610dbb610cbc565b5b610dc7848285610d7e565b509392505050565b600082601f830112610de457610de3610cb7565b5b8135610df4848260208601610d8d565b91505092915050565b600067ffffffffffffffff821115610e1857610e17610cd2565b5b602082029050602081019050919050565b600080fd5b6000610e41610e3c84610dfd565b610d32565b90508083825260208201905060208402830185811115610e6457610e63610e29565b5b835b81811015610eab57803567ffffffffffffffff811115610e8957610e88610cb7565b5b808601610e968982610dcf565b85526020850194505050602081019050610e66565b5050509392505050565b600082601f830112610eca57610ec9610cb7565b5b8135610eda848260208601610e2e565b91505092915050565b60008060408385031215610efa57610ef9610b82565b5b600083013567ffffffffffffffff811115610f1857610f17610b87565b5b610f2485828601610dcf565b925050602083013567ffffffffffffffff811115610f4557610f44610b87565b5b610f5185828601610eb5565b9150509250929050565b600081519050919050565b600082825260208201905092915050565b60005b83811015610f95578082015181840152602081019050610f7a565b60008484015250505050565b6000610fac82610f5b565b610fb68185610f66565b9350610fc6818560208601610f77565b610fcf81610cc1565b840191505092915050565b600081519050919050565b600082825260208201905092915050565b6000819050602082019050919050565b61100f81610b8c565b82525050565b60006110218383611006565b60208301905092915050565b6000602082019050919050565b600061104582610fda565b61104f8185610fe5565b935061105a83610ff6565b8060005b8381101561108b5781516110728882611015565b975061107d8361102d565b92505060018101905061105e565b5085935050505092915050565b600060408201905081810360008301526110b28185610fa1565b905081810360208301526110c6818461103a565b90509392505050565b600060208201905081810360008301526110e98184610fa1565b905092915050565b6000806040838503121561110857611107610b82565b5b600061111685828601610bad565b925050602061112785828601610bad565b9150509250929050565b61113a81610be2565b82525050565b60006020820190506111556000830184611131565b92915050565b7f4f6e6c79207468652061646d696e2063616e2061646420766f7465727320746f60008201527f206120706f6c6c00000000000000000000000000000000000000000000000000602082015250565b60006111b7602783610f66565b91506111c28261115b565b604082019050919050565b600060208201905081810360008301526111e6816111aa565b9050919050565b7f496e76616c696420706f6c6c2064617461000000000000000000000000000000600082015250565b6000611223601183610f66565b915061122e826111ed565b602082019050919050565b6000602082019050818103600083015261125281611216565b9050919050565b7f4e487b7100000000000000000000000000000000000000000000000000000000600052603260045260246000fd5b7f566f7465722068617320616c7265616479206265656e20616464656400000000600082015250565b60006112be601c83610f66565b91506112c982611288565b602082019050919050565b600060208201905081810360008301526112ed816112b1565b9050919050565b7f4e487b7100000000000000000000000000000000000000000000000000000000600052601160045260246000fd5b600061132e82610b8c565b91507fffffffffffffffffffffffffffffffffffffffffffffffffffffffffffffffff82036113605761135f6112f4565b5b600182019050919050565b7f4f6e6c79207468652061646d696e2063616e2063726561746520706f6c6c7300600082015250565b60006113a1601f83610f66565b91506113ac8261136b565b602082019050919050565b600060208201905081810360008301526113d081611394565b9050919050565b60006113e282610b8c565b91506113ed83610b8c565b9250828203905081811115611405576114046112f4565b5b92915050565b7f4e487b7100000000000000000000000000000000000000000000000000000000600052602260045260246000fd5b6000600282049050600182168061145257607f821691505b6020821081036114655761146461140b565b5b50919050565b60008190508160005260206000209050919050565b60006020601f8301049050919050565b600082821b905092915050565b6000600883026114cd7fffffffffffffffffffffffffffffffffffffffffffffffffffffffffffffffff82611490565b6114d78683611490565b95508019841693508086168417925050509392505050565b6000819050919050565b600061151461150f61150a84610b8c565b6114ef565b610b8c565b9050919050565b6000819050919050565b61152e836114f9565b61154261153a8261151b565b84845461149d565b825550505050565b600090565b61155761154a565b611562818484611525565b505050565b5b818110156115865761157b60008261154f565b600181019050611568565b5050565b601f8211156115cb5761159c8161146b565b6115a584611480565b810160208510156115b4578190505b6115c86115c085611480565b830182611567565b50505b505050565b600082821c905092915050565b60006115ee600019846008026115d0565b1980831691505092915050565b600061160783836115dd565b9150826002028217905092915050565b61162082610f5b565b67ffffffffffffffff81111561163957611638610cd2565b5b611643825461143a565b61164e82828561158a565b600060209050601f831160018114611681576000841561166f578287015190505b61167985826115fb565b8655506116e1565b601f19841661168f8661146b565b60005b828110156116b757848901518255600182019150602085019450602081019050611692565b868310156116d457848901516116d0601f8916826115dd565b8355505b6001600288020188555050505b505050505050565b7f496e76616c6964206f7074696f6e000000000000000000000000000000000000600082015250565b600061171f600e83610f66565b915061172a826116e9565b602082019050919050565b6000602082019050818103600083015261174e81611712565b905091905056fea2646970667358221220ca878fa51ce2a204e91ae353bc3e813e8dceba7a578a16baa8e666194909617a64736f6c63430008110033",
  "immutableReferences": {},
  "source": "pragma solidity ^0.8.0;\r\n\r\ncontract Poll {\r\n    // Poll struct\r\n    struct PollStruct {\r\n        string name;\r\n        string[] options;\r\n        address[] voters;\r\n        uint[] votes;\r\n    }\r\n\r\n    // Mapping from poll ID to poll struct\r\n    mapping(uint => PollStruct) public polls;\r\n    // List of all poll IDs\r\n    uint[] public pollIds;\r\n    // Admin address\r\n    address public admin;\r\n\r\n    // Constructor\r\n    constructor() public {\r\n        // Set the contract deployer as the admin\r\n        admin = msg.sender;\r\n    }\r\n\r\n    // Function to create a new poll\r\n    function createPoll(string memory name, string[] memory options) public {\r\n        require(msg.sender == admin, \"Only the admin can create polls\");\r\n        pollIds.push(0);\r\n        uint pollId = pollIds.length - 1;\r\n        polls[pollId] = PollStruct(name, options, new address[](0), new uint[](options.length));\r\n        pollIds[pollId] = pollId;\r\n    }\r\n\r\n    // Function to add a voter to a poll\r\n    function addVoter(uint pollId, address voter) public {\r\n        require(msg.sender == admin, \"Only the admin can add voters to a poll\");\r\n        PollStruct storage poll = polls[pollId];\r\n        require(poll.voters.length == poll.votes.length, \"Invalid poll data\");\r\n        for (uint i = 0; i < poll.voters.length; i++) {\r\n            require(poll.voters[i] != voter, \"Voter has already been added\");\r\n        }\r\n        poll.voters.push(voter);\r\n        poll.votes.push(0);\r\n    }\r\n\r\n    // Function to cast a vote in a poll\r\n    function vote(uint pollId, uint option) public {\r\n        PollStruct storage poll = polls[pollId];\r\n        require(poll.voters.length == poll.votes.length, \"Invalid poll data\");\r\n        require(option < poll.options.length, \"Invalid option\");\r\n        address voter = msg.sender;\r\n        for (uint i = 0; i < poll.voters.length; i++) {\r\n            if (poll.voters[i] == voter) {\r\n                poll.votes[i] = option;\r\n                return;\r\n            }\r\n        }\r\n        // If the voter has not been added to the poll, add them and cast their vote\r\n        addVoter(pollId, voter);\r\n        poll.votes[poll.votes.length - 1] = option;\r\n    }\r\n\r\n    // Function to get the results of a poll\r\n    function getResults(uint pollId) public view returns (string memory name, uint[] memory votes) {\r\n        PollStruct storage poll = polls[pollId];\r\n        name = poll.name;\r\n        votes = poll.votes;\r\n    }\r\n}",
  "sourcePath": "C:\\Users\\creat\\Desktop\\BC\\ProjektBC\\contracts\\Poll.sol",
  "compiler": {
    "name": "solc",
    "version": "0.8.17+commit.8df45f5f.Emscripten.clang"
  },
  "schemaVersion": "3.4.11",
  "updatedAt": "2023-01-06T09:51:22.292Z",
  "networkType": "ethereum",
  "devdoc": {
    "kind": "dev",
    "methods": {},
    "version": 1
  },
  "userdoc": {
    "kind": "user",
    "methods": {},
    "version": 1
  }
}